{
  "_format": "hh-sol-artifact-1",
  "contractName": "LendingBorrowingPool",
  "sourceName": "contracts/LendingPool.sol",
  "abi": [
    {
      "anonymous": false,
      "inputs": [
        {
          "indexed": false,
          "internalType": "uint256",
          "name": "loanId",
          "type": "uint256"
        },
        {
          "indexed": true,
          "internalType": "address",
          "name": "borrower",
          "type": "address"
        },
        {
          "indexed": false,
          "internalType": "uint256",
          "name": "amount",
          "type": "uint256"
        },
        {
          "indexed": false,
          "internalType": "uint256",
          "name": "collateral",
          "type": "uint256"
        },
        {
          "indexed": false,
          "internalType": "string",
          "name": "collateralToken",
          "type": "string"
        },
        {
          "indexed": false,
          "internalType": "uint256",
          "name": "duration",
          "type": "uint256"
        },
        {
          "indexed": false,
          "internalType": "uint256",
          "name": "startTime",
          "type": "uint256"
        }
      ],
      "name": "Borrowed",
      "type": "event"
    },
    {
      "anonymous": false,
      "inputs": [
        {
          "indexed": false,
          "internalType": "string",
          "name": "label",
          "type": "string"
        },
        {
          "indexed": false,
          "internalType": "uint256",
          "name": "value",
          "type": "uint256"
        }
      ],
      "name": "Debug",
      "type": "event"
    },
    {
      "anonymous": false,
      "inputs": [
        {
          "indexed": true,
          "internalType": "address",
          "name": "user",
          "type": "address"
        },
        {
          "indexed": false,
          "internalType": "uint256",
          "name": "depositId",
          "type": "uint256"
        },
        {
          "indexed": false,
          "internalType": "uint256",
          "name": "amount",
          "type": "uint256"
        },
        {
          "indexed": false,
          "internalType": "uint256",
          "name": "apyBps",
          "type": "uint256"
        },
        {
          "indexed": false,
          "internalType": "uint256",
          "name": "timestamp",
          "type": "uint256"
        }
      ],
      "name": "Deposited",
      "type": "event"
    },
    {
      "anonymous": false,
      "inputs": [
        {
          "indexed": true,
          "internalType": "address",
          "name": "user",
          "type": "address"
        },
        {
          "indexed": false,
          "internalType": "uint256",
          "name": "depositId",
          "type": "uint256"
        },
        {
          "indexed": false,
          "internalType": "uint256",
          "name": "amount",
          "type": "uint256"
        },
        {
          "indexed": false,
          "internalType": "uint256",
          "name": "interest",
          "type": "uint256"
        }
      ],
      "name": "Withdrawn",
      "type": "event"
    },
    {
      "inputs": [],
      "name": "BPS_DIVISOR",
      "outputs": [
        {
          "internalType": "uint256",
          "name": "",
          "type": "uint256"
        }
      ],
      "stateMutability": "view",
      "type": "function"
    },
    {
      "inputs": [],
      "name": "SECONDS_IN_YEAR",
      "outputs": [
        {
          "internalType": "uint256",
          "name": "",
          "type": "uint256"
        }
      ],
      "stateMutability": "view",
      "type": "function"
    },
    {
      "inputs": [
        {
          "components": [
            {
              "internalType": "uint256",
              "name": "id",
              "type": "uint256"
            },
            {
              "internalType": "uint256",
              "name": "amount",
              "type": "uint256"
            },
            {
              "internalType": "uint256",
              "name": "depositedAt",
              "type": "uint256"
            },
            {
              "internalType": "uint256",
              "name": "apyBps",
              "type": "uint256"
            }
          ],
          "internalType": "struct LendingBorrowingPool.DepositInfo",
          "name": "d",
          "type": "tuple"
        }
      ],
      "name": "calculateInterest",
      "outputs": [
        {
          "internalType": "uint256",
          "name": "interest",
          "type": "uint256"
        }
      ],
      "stateMutability": "view",
      "type": "function"
    },
    {
      "inputs": [
        {
          "internalType": "uint256",
          "name": "apyBps",
          "type": "uint256"
        }
      ],
      "name": "deposit",
      "outputs": [],
      "stateMutability": "payable",
      "type": "function"
    },
    {
      "inputs": [
        {
          "internalType": "address",
          "name": "",
          "type": "address"
        },
        {
          "internalType": "uint256",
          "name": "",
          "type": "uint256"
        }
      ],
      "name": "deposits",
      "outputs": [
        {
          "internalType": "uint256",
          "name": "id",
          "type": "uint256"
        },
        {
          "internalType": "uint256",
          "name": "amount",
          "type": "uint256"
        },
        {
          "internalType": "uint256",
          "name": "depositedAt",
          "type": "uint256"
        },
        {
          "internalType": "uint256",
          "name": "apyBps",
          "type": "uint256"
        }
      ],
      "stateMutability": "view",
      "type": "function"
    },
    {
      "inputs": [
        {
          "internalType": "address",
          "name": "user",
          "type": "address"
        }
      ],
      "name": "getLoans",
      "outputs": [
        {
          "components": [
            {
              "internalType": "uint256",
              "name": "id",
              "type": "uint256"
            },
            {
              "internalType": "address",
              "name": "borrower",
              "type": "address"
            },
            {
              "internalType": "uint256",
              "name": "amount",
              "type": "uint256"
            },
            {
              "internalType": "uint256",
              "name": "collateral",
              "type": "uint256"
            },
            {
              "internalType": "string",
              "name": "collateralToken",
              "type": "string"
            },
            {
              "internalType": "uint256",
              "name": "duration",
              "type": "uint256"
            },
            {
              "internalType": "uint256",
              "name": "startTime",
              "type": "uint256"
            },
            {
              "internalType": "bool",
              "name": "active",
              "type": "bool"
            }
          ],
          "internalType": "struct LendingBorrowingPool.Loan[]",
          "name": "",
          "type": "tuple[]"
        }
      ],
      "stateMutability": "view",
      "type": "function"
    },
    {
      "inputs": [
        {
          "internalType": "address",
          "name": "user",
          "type": "address"
        }
      ],
      "name": "getUserDeposits",
      "outputs": [
        {
          "components": [
            {
              "internalType": "uint256",
              "name": "id",
              "type": "uint256"
            },
            {
              "internalType": "uint256",
              "name": "amount",
              "type": "uint256"
            },
            {
              "internalType": "uint256",
              "name": "depositedAt",
              "type": "uint256"
            },
            {
              "internalType": "uint256",
              "name": "apyBps",
              "type": "uint256"
            }
          ],
          "internalType": "struct LendingBorrowingPool.DepositInfo[]",
          "name": "",
          "type": "tuple[]"
        }
      ],
      "stateMutability": "view",
      "type": "function"
    },
    {
      "inputs": [
        {
          "internalType": "address",
          "name": "",
          "type": "address"
        },
        {
          "internalType": "uint256",
          "name": "",
          "type": "uint256"
        }
      ],
      "name": "loans",
      "outputs": [
        {
          "internalType": "uint256",
          "name": "id",
          "type": "uint256"
        },
        {
          "internalType": "address",
          "name": "borrower",
          "type": "address"
        },
        {
          "internalType": "uint256",
          "name": "amount",
          "type": "uint256"
        },
        {
          "internalType": "uint256",
          "name": "collateral",
          "type": "uint256"
        },
        {
          "internalType": "string",
          "name": "collateralToken",
          "type": "string"
        },
        {
          "internalType": "uint256",
          "name": "duration",
          "type": "uint256"
        },
        {
          "internalType": "uint256",
          "name": "startTime",
          "type": "uint256"
        },
        {
          "internalType": "bool",
          "name": "active",
          "type": "bool"
        }
      ],
      "stateMutability": "view",
      "type": "function"
    },
    {
      "inputs": [],
      "name": "nextDepositId",
      "outputs": [
        {
          "internalType": "uint256",
          "name": "",
          "type": "uint256"
        }
      ],
      "stateMutability": "view",
      "type": "function"
    },
    {
      "inputs": [],
      "name": "nextLoanId",
      "outputs": [
        {
          "internalType": "uint256",
          "name": "",
          "type": "uint256"
        }
      ],
      "stateMutability": "view",
      "type": "function"
    },
    {
      "inputs": [
        {
          "internalType": "uint256",
          "name": "amount",
          "type": "uint256"
        },
        {
          "internalType": "string",
          "name": "collateralToken",
          "type": "string"
        },
        {
          "internalType": "uint256",
          "name": "duration",
          "type": "uint256"
        }
      ],
      "name": "requestLoan",
      "outputs": [],
      "stateMutability": "payable",
      "type": "function"
    },
    {
      "inputs": [
        {
          "internalType": "uint256",
          "name": "depositId",
          "type": "uint256"
        },
        {
          "internalType": "uint256",
          "name": "amount",
          "type": "uint256"
        }
      ],
      "name": "withdraw",
      "outputs": [],
      "stateMutability": "nonpayable",
      "type": "function"
    },
    {
      "stateMutability": "payable",
      "type": "receive"
    }
  ],
  "bytecode": "0x60806040526001600355348015601457600080fd5b50612548806100246000396000f3fe6080604052600436106100ab5760003560e01c806387c514591161006457806387c51459146101db57806398c61c3714610206578063b6b55f251461024a578063d6d6817714610266578063d988ef20146102a6578063f1604fee146102e3576100b2565b8063191fe1ed146100b75780632a5bf6d2146100e2578063441a3e701461011f5780634727959e146101485780635dcc9391146101855780638070a4bd146101b0576100b2565b366100b257005b600080fd5b3480156100c357600080fd5b506100cc6102ff565b6040516100d991906110f7565b60405180910390f35b3480156100ee57600080fd5b5061010960048036038101906101049190611184565b610305565b60405161011691906112c4565b60405180910390f35b34801561012b57600080fd5b5061014660048036038101906101419190611312565b6103ca565b005b34801561015457600080fd5b5061016f600480360381019061016a919061145b565b6107c6565b60405161017c91906110f7565b60405180910390f35b34801561019157600080fd5b5061019a610844565b6040516101a791906110f7565b60405180910390f35b3480156101bc57600080fd5b506101c561084c565b6040516101d291906110f7565b60405180910390f35b3480156101e757600080fd5b506101f0610852565b6040516101fd91906110f7565b60405180910390f35b34801561021257600080fd5b5061022d60048036038101906102289190611488565b610858565b604051610241989796959493929190611571565b60405180910390f35b610264600480360381019061025f91906115f6565b610972565b005b34801561027257600080fd5b5061028d60048036038101906102889190611488565b610b1f565b60405161029d9493929190611623565b60405180910390f35b3480156102b257600080fd5b506102cd60048036038101906102c89190611184565b610b6c565b6040516102da9190611842565b60405180910390f35b6102fd60048036038101906102f8919061191e565b610d40565b005b61271081565b60606000808373ffffffffffffffffffffffffffffffffffffffff1673ffffffffffffffffffffffffffffffffffffffff168152602001908152602001600020805480602002602001604051908101604052809291908181526020016000905b828210156103bf578382906000526020600020906004020160405180608001604052908160008201548152602001600182015481526020016002820154815260200160038201548152505081526020019060010190610365565b505050509050919050565b60008060003373ffffffffffffffffffffffffffffffffffffffff1673ffffffffffffffffffffffffffffffffffffffff16815260200190815260200160002090506000805b828054905081101561077f57848382815481106104305761042f61198d565b5b9060005260206000209060040201600001540361077257600083828154811061045c5761045b61198d565b5b9060005260206000209060040201905060008160010154116104b3576040517f08c379a00000000000000000000000000000000000000000000000000000000081526004016104aa90611a08565b60405180910390fd5b6000851180156104c7575080600101548511155b610506576040517f08c379a00000000000000000000000000000000000000000000000000000000081526004016104fd90611a74565b60405180910390fd5b60008160020154426105189190611ac3565b905060006301e1338061271061052e9190611af7565b82846003015485600101546105439190611af7565b61054d9190611af7565b6105579190611b68565b905060008360010154888361056c9190611af7565b6105769190611b68565b9050600081896105869190611b99565b90507f3c5ad147104e56be34a9176a6692f7df8d2f4b29a5af06bc6b98970d329d6577896040516105b79190611c19565b60405180910390a17f3c5ad147104e56be34a9176a6692f7df8d2f4b29a5af06bc6b98970d329d6577826040516105ee9190611c93565b60405180910390a17f3c5ad147104e56be34a9176a6692f7df8d2f4b29a5af06bc6b98970d329d6577816040516106259190611d0d565b60405180910390a1888560010160008282546106419190611ac3565b92505081905550600085600101541461065a574261065d565b60005b856002018190555060003373ffffffffffffffffffffffffffffffffffffffff168260405161068b90611d6c565b60006040518083038185875af1925050503d80600081146106c8576040519150601f19603f3d011682016040523d82523d6000602084013e6106cd565b606091505b5050905080610711576040517f08c379a000000000000000000000000000000000000000000000000000000000815260040161070890611dcd565b60405180910390fd5b3373ffffffffffffffffffffffffffffffffffffffff167f75e161b3e824b114fc1a33274bd7091918dd4e639cede50b78b15a4eea956a218c8c8660405161075b93929190611ded565b60405180910390a26001975050505050505061077f565b8080600101915050610410565b50806107c0576040517f08c379a00000000000000000000000000000000000000000000000000000000081526004016107b790611e70565b60405180910390fd5b50505050565b600080826020015114806107de575060008260400151145b156107ec576000905061083f565b60008260400151426107fe9190611ac3565b90506301e133806127106108129190611af7565b81846060015185602001516108279190611af7565b6108319190611af7565b61083b9190611b68565b9150505b919050565b6301e1338081565b60025481565b60035481565b6001602052816000526040600020818154811061087457600080fd5b9060005260206000209060080201600091509150508060000154908060010160009054906101000a900473ffffffffffffffffffffffffffffffffffffffff16908060020154908060030154908060040180546108d090611ebf565b80601f01602080910402602001604051908101604052809291908181526020018280546108fc90611ebf565b80156109495780601f1061091e57610100808354040283529160200191610949565b820191906000526020600020905b81548152906001019060200180831161092c57829003601f168201915b5050505050908060050154908060060154908060070160009054906101000a900460ff16905088565b600034116109b5576040517f08c379a00000000000000000000000000000000000000000000000000000000081526004016109ac90611f3c565b60405180910390fd5b6127108111156109fa576040517f08c379a00000000000000000000000000000000000000000000000000000000081526004016109f190611fa8565b60405180910390fd5b6000803373ffffffffffffffffffffffffffffffffffffffff1673ffffffffffffffffffffffffffffffffffffffff168152602001908152602001600020604051806080016040528060025481526020013481526020014281526020018381525090806001815401808255809150506001900390600052602060002090600402016000909190919091506000820151816000015560208201518160010155604082015181600201556060820151816003015550503373ffffffffffffffffffffffffffffffffffffffff167fe3b53cd1a44fbf11535e145d80b8ef1ed6d57a73bf5daa7e939b6b01657d6549600254348442604051610afc9493929190611623565b60405180910390a260026000815480929190610b1790611fc8565b919050555050565b60006020528160005260406000208181548110610b3b57600080fd5b9060005260206000209060040201600091509150508060000154908060010154908060020154908060030154905084565b6060600160008373ffffffffffffffffffffffffffffffffffffffff1673ffffffffffffffffffffffffffffffffffffffff168152602001908152602001600020805480602002602001604051908101604052809291908181526020016000905b82821015610d35578382906000526020600020906008020160405180610100016040529081600082015481526020016001820160009054906101000a900473ffffffffffffffffffffffffffffffffffffffff1673ffffffffffffffffffffffffffffffffffffffff1673ffffffffffffffffffffffffffffffffffffffff1681526020016002820154815260200160038201548152602001600482018054610c7590611ebf565b80601f0160208091040260200160405190810160405280929190818152602001828054610ca190611ebf565b8015610cee5780601f10610cc357610100808354040283529160200191610cee565b820191906000526020600020905b815481529060010190602001808311610cd157829003601f168201915b5050505050815260200160058201548152602001600682015481526020016007820160009054906101000a900460ff16151515158152505081526020019060010190610bcd565b505050509050919050565b60008311610d83576040517f08c379a0000000000000000000000000000000000000000000000000000000008152600401610d7a9061205c565b60405180910390fd5b60003411610dc6576040517f08c379a0000000000000000000000000000000000000000000000000000000008152600401610dbd906120c8565b60405180910390fd5b60008111610e09576040517f08c379a0000000000000000000000000000000000000000000000000000000008152600401610e0090612134565b60405180910390fd5b82471015610e4c576040517f08c379a0000000000000000000000000000000000000000000000000000000008152600401610e43906121a0565b60405180910390fd5b600160003373ffffffffffffffffffffffffffffffffffffffff1673ffffffffffffffffffffffffffffffffffffffff16815260200190815260200160002060405180610100016040528060035481526020013373ffffffffffffffffffffffffffffffffffffffff1681526020018581526020013481526020018481526020018381526020014281526020016001151581525090806001815401808255809150506001900390600052602060002090600802016000909190919091506000820151816000015560208201518160010160006101000a81548173ffffffffffffffffffffffffffffffffffffffff021916908373ffffffffffffffffffffffffffffffffffffffff16021790555060408201518160020155606082015181600301556080820151816004019081610f83919061236c565b5060a0820151816005015560c0820151816006015560e08201518160070160006101000a81548160ff02191690831515021790555050503373ffffffffffffffffffffffffffffffffffffffff167ff2e4c5f3df1fee4db26ec91e9e4ce31a8f3e89c795654d1a4ac7560d3d1c83a6600354853486864260405161100c9695949392919061243e565b60405180910390a260003373ffffffffffffffffffffffffffffffffffffffff168460405161103a90611d6c565b60006040518083038185875af1925050503d8060008114611077576040519150601f19603f3d011682016040523d82523d6000602084013e61107c565b606091505b50509050806110c0576040517f08c379a00000000000000000000000000000000000000000000000000000000081526004016110b7906124f2565b60405180910390fd5b600360008154809291906110d390611fc8565b919050555050505050565b6000819050919050565b6110f1816110de565b82525050565b600060208201905061110c60008301846110e8565b92915050565b6000604051905090565b600080fd5b600080fd5b600073ffffffffffffffffffffffffffffffffffffffff82169050919050565b600061115182611126565b9050919050565b61116181611146565b811461116c57600080fd5b50565b60008135905061117e81611158565b92915050565b60006020828403121561119a5761119961111c565b5b60006111a88482850161116f565b91505092915050565b600081519050919050565b600082825260208201905092915050565b6000819050602082019050919050565b6111e6816110de565b82525050565b60808201600082015161120260008501826111dd565b50602082015161121560208501826111dd565b50604082015161122860408501826111dd565b50606082015161123b60608501826111dd565b50505050565b600061124d83836111ec565b60808301905092915050565b6000602082019050919050565b6000611271826111b1565b61127b81856111bc565b9350611286836111cd565b8060005b838110156112b757815161129e8882611241565b97506112a983611259565b92505060018101905061128a565b5085935050505092915050565b600060208201905081810360008301526112de8184611266565b905092915050565b6112ef816110de565b81146112fa57600080fd5b50565b60008135905061130c816112e6565b92915050565b600080604083850312156113295761132861111c565b5b6000611337858286016112fd565b9250506020611348858286016112fd565b9150509250929050565b600080fd5b6000601f19601f8301169050919050565b7f4e487b7100000000000000000000000000000000000000000000000000000000600052604160045260246000fd5b6113a082611357565b810181811067ffffffffffffffff821117156113bf576113be611368565b5b80604052505050565b60006113d2611112565b90506113de8282611397565b919050565b6000608082840312156113f9576113f8611352565b5b61140360806113c8565b90506000611413848285016112fd565b6000830152506020611427848285016112fd565b602083015250604061143b848285016112fd565b604083015250606061144f848285016112fd565b60608301525092915050565b6000608082840312156114715761147061111c565b5b600061147f848285016113e3565b91505092915050565b6000806040838503121561149f5761149e61111c565b5b60006114ad8582860161116f565b92505060206114be858286016112fd565b9150509250929050565b6114d181611146565b82525050565b600081519050919050565b600082825260208201905092915050565b60005b838110156115115780820151818401526020810190506114f6565b60008484015250505050565b6000611528826114d7565b61153281856114e2565b93506115428185602086016114f3565b61154b81611357565b840191505092915050565b60008115159050919050565b61156b81611556565b82525050565b600061010082019050611587600083018b6110e8565b611594602083018a6114c8565b6115a160408301896110e8565b6115ae60608301886110e8565b81810360808301526115c0818761151d565b90506115cf60a08301866110e8565b6115dc60c08301856110e8565b6115e960e0830184611562565b9998505050505050505050565b60006020828403121561160c5761160b61111c565b5b600061161a848285016112fd565b91505092915050565b600060808201905061163860008301876110e8565b61164560208301866110e8565b61165260408301856110e8565b61165f60608301846110e8565b95945050505050565b600081519050919050565b600082825260208201905092915050565b6000819050602082019050919050565b61169d81611146565b82525050565b600082825260208201905092915050565b60006116bf826114d7565b6116c981856116a3565b93506116d98185602086016114f3565b6116e281611357565b840191505092915050565b6116f681611556565b82525050565b60006101008301600083015161171560008601826111dd565b5060208301516117286020860182611694565b50604083015161173b60408601826111dd565b50606083015161174e60608601826111dd565b506080830151848203608086015261176682826116b4565b91505060a083015161177b60a08601826111dd565b5060c083015161178e60c08601826111dd565b5060e08301516117a160e08601826116ed565b508091505092915050565b60006117b883836116fc565b905092915050565b6000602082019050919050565b60006117d882611668565b6117e28185611673565b9350836020820285016117f485611684565b8060005b85811015611830578484038952815161181185826117ac565b945061181c836117c0565b925060208a019950506001810190506117f8565b50829750879550505050505092915050565b6000602082019050818103600083015261185c81846117cd565b905092915050565b600080fd5b600080fd5b600067ffffffffffffffff82111561188957611888611368565b5b61189282611357565b9050602081019050919050565b82818337600083830152505050565b60006118c16118bc8461186e565b6113c8565b9050828152602081018484840111156118dd576118dc611869565b5b6118e884828561189f565b509392505050565b600082601f83011261190557611904611864565b5b81356119158482602086016118ae565b91505092915050565b6000806000606084860312156119375761193661111c565b5b6000611945868287016112fd565b935050602084013567ffffffffffffffff81111561196657611965611121565b5b611972868287016118f0565b9250506040611983868287016112fd565b9150509250925092565b7f4e487b7100000000000000000000000000000000000000000000000000000000600052603260045260246000fd5b7f4e6f7468696e6720746f20776974686472617700000000000000000000000000600082015250565b60006119f26013836114e2565b91506119fd826119bc565b602082019050919050565b60006020820190508181036000830152611a21816119e5565b9050919050565b7f496e76616c696420776974686472617720616d6f756e74000000000000000000600082015250565b6000611a5e6017836114e2565b9150611a6982611a28565b602082019050919050565b60006020820190508181036000830152611a8d81611a51565b9050919050565b7f4e487b7100000000000000000000000000000000000000000000000000000000600052601160045260246000fd5b6000611ace826110de565b9150611ad9836110de565b9250828203905081811115611af157611af0611a94565b5b92915050565b6000611b02826110de565b9150611b0d836110de565b9250828202611b1b816110de565b91508282048414831517611b3257611b31611a94565b5b5092915050565b7f4e487b7100000000000000000000000000000000000000000000000000000000600052601260045260246000fd5b6000611b73826110de565b9150611b7e836110de565b925082611b8e57611b8d611b39565b5b828204905092915050565b6000611ba4826110de565b9150611baf836110de565b9250828201905080821115611bc757611bc6611a94565b5b92915050565b7f77697468647261775f616d6f756e740000000000000000000000000000000000600082015250565b6000611c03600f836114e2565b9150611c0e82611bcd565b602082019050919050565b60006040820190508181036000830152611c3281611bf6565b9050611c4160208301846110e8565b92915050565b7f70726f72617465645f696e746572657374000000000000000000000000000000600082015250565b6000611c7d6011836114e2565b9150611c8882611c47565b602082019050919050565b60006040820190508181036000830152611cac81611c70565b9050611cbb60208301846110e8565b92915050565b7f746f74616c5f7061796f75740000000000000000000000000000000000000000600082015250565b6000611cf7600c836114e2565b9150611d0282611cc1565b602082019050919050565b60006040820190508181036000830152611d2681611cea565b9050611d3560208301846110e8565b92915050565b600081905092915050565b50565b6000611d56600083611d3b565b9150611d6182611d46565b600082019050919050565b6000611d7782611d49565b9150819050919050565b7f5472616e73666572206661696c65640000000000000000000000000000000000600082015250565b6000611db7600f836114e2565b9150611dc282611d81565b602082019050919050565b60006020820190508181036000830152611de681611daa565b9050919050565b6000606082019050611e0260008301866110e8565b611e0f60208301856110e8565b611e1c60408301846110e8565b949350505050565b7f4465706f736974204944206e6f7420666f756e64000000000000000000000000600082015250565b6000611e5a6014836114e2565b9150611e6582611e24565b602082019050919050565b60006020820190508181036000830152611e8981611e4d565b9050919050565b7f4e487b7100000000000000000000000000000000000000000000000000000000600052602260045260246000fd5b60006002820490506001821680611ed757607f821691505b602082108103611eea57611ee9611e90565b5b50919050565b7f53656e6420736f6d652045544800000000000000000000000000000000000000600082015250565b6000611f26600d836114e2565b9150611f3182611ef0565b602082019050919050565b60006020820190508181036000830152611f5581611f19565b9050919050565b7f496e76616c696420415059000000000000000000000000000000000000000000600082015250565b6000611f92600b836114e2565b9150611f9d82611f5c565b602082019050919050565b60006020820190508181036000830152611fc181611f85565b9050919050565b6000611fd3826110de565b91507fffffffffffffffffffffffffffffffffffffffffffffffffffffffffffffffff820361200557612004611a94565b5b600182019050919050565b7f496e76616c6964206c6f616e20616d6f756e7400000000000000000000000000600082015250565b60006120466013836114e2565b915061205182612010565b602082019050919050565b6000602082019050818103600083015261207581612039565b9050919050565b7f436f6c6c61746572616c20726571756972656400000000000000000000000000600082015250565b60006120b26013836114e2565b91506120bd8261207c565b602082019050919050565b600060208201905081810360008301526120e1816120a5565b9050919050565b7f496e76616c6964206c6f616e206475726174696f6e0000000000000000000000600082015250565b600061211e6015836114e2565b9150612129826120e8565b602082019050919050565b6000602082019050818103600083015261214d81612111565b9050919050565b7f4e6f7420656e6f756768206c697175696469747920746f206c656e6400000000600082015250565b600061218a601c836114e2565b915061219582612154565b602082019050919050565b600060208201905081810360008301526121b98161217d565b9050919050565b60008190508160005260206000209050919050565b60006020601f8301049050919050565b600082821b905092915050565b6000600883026122227fffffffffffffffffffffffffffffffffffffffffffffffffffffffffffffffff826121e5565b61222c86836121e5565b95508019841693508086168417925050509392505050565b6000819050919050565b600061226961226461225f846110de565b612244565b6110de565b9050919050565b6000819050919050565b6122838361224e565b61229761228f82612270565b8484546121f2565b825550505050565b600090565b6122ac61229f565b6122b781848461227a565b505050565b5b818110156122db576122d06000826122a4565b6001810190506122bd565b5050565b601f821115612320576122f1816121c0565b6122fa846121d5565b81016020851015612309578190505b61231d612315856121d5565b8301826122bc565b50505b505050565b600082821c905092915050565b600061234360001984600802612325565b1980831691505092915050565b600061235c8383612332565b9150826002028217905092915050565b612375826114d7565b67ffffffffffffffff81111561238e5761238d611368565b5b6123988254611ebf565b6123a38282856122df565b600060209050601f8311600181146123d657600084156123c4578287015190505b6123ce8582612350565b865550612436565b601f1984166123e4866121c0565b60005b8281101561240c578489015182556001820191506020850194506020810190506123e7565b868310156124295784890151612425601f891682612332565b8355505b6001600288020188555050505b505050505050565b600060c08201905061245360008301896110e8565b61246060208301886110e8565b61246d60408301876110e8565b818103606083015261247f818661151d565b905061248e60808301856110e8565b61249b60a08301846110e8565b979650505050505050565b7f4c6f616e207472616e73666572206661696c6564000000000000000000000000600082015250565b60006124dc6014836114e2565b91506124e7826124a6565b602082019050919050565b6000602082019050818103600083015261250b816124cf565b905091905056fea2646970667358221220176d2f21726fd57e36c6c59388f946e9ec6d96424f02da3fc72010745bcffd9964736f6c634300081c0033",
  "linkReferences": {},
  "deployedLinkReferences": {}
}