{
  "_format": "hh-sol-artifact-1",
  "contractName": "LendingPool",
  "sourceName": "contracts/LendingPool.sol",
  "abi": [
    {
      "anonymous": false,
      "inputs": [
        {
          "indexed": false,
          "internalType": "string",
          "name": "label",
          "type": "string"
        },
        {
          "indexed": false,
          "internalType": "uint256",
          "name": "value",
          "type": "uint256"
        }
      ],
      "name": "Debug",
      "type": "event"
    },
    {
      "anonymous": false,
      "inputs": [
        {
          "indexed": true,
          "internalType": "address",
          "name": "user",
          "type": "address"
        },
        {
          "indexed": false,
          "internalType": "uint256",
          "name": "depositId",
          "type": "uint256"
        },
        {
          "indexed": false,
          "internalType": "uint256",
          "name": "amount",
          "type": "uint256"
        },
        {
          "indexed": false,
          "internalType": "uint256",
          "name": "timestamp",
          "type": "uint256"
        }
      ],
      "name": "Deposited",
      "type": "event"
    },
    {
      "anonymous": false,
      "inputs": [
        {
          "indexed": true,
          "internalType": "address",
          "name": "user",
          "type": "address"
        },
        {
          "indexed": false,
          "internalType": "uint256",
          "name": "depositId",
          "type": "uint256"
        },
        {
          "indexed": false,
          "internalType": "uint256",
          "name": "amount",
          "type": "uint256"
        },
        {
          "indexed": false,
          "internalType": "uint256",
          "name": "interest",
          "type": "uint256"
        }
      ],
      "name": "Withdrawn",
      "type": "event"
    },
    {
      "inputs": [],
      "name": "APY_BPS",
      "outputs": [
        {
          "internalType": "uint256",
          "name": "",
          "type": "uint256"
        }
      ],
      "stateMutability": "view",
      "type": "function"
    },
    {
      "inputs": [],
      "name": "BPS_DIVISOR",
      "outputs": [
        {
          "internalType": "uint256",
          "name": "",
          "type": "uint256"
        }
      ],
      "stateMutability": "view",
      "type": "function"
    },
    {
      "inputs": [],
      "name": "SECONDS_IN_YEAR",
      "outputs": [
        {
          "internalType": "uint256",
          "name": "",
          "type": "uint256"
        }
      ],
      "stateMutability": "view",
      "type": "function"
    },
    {
      "inputs": [
        {
          "components": [
            {
              "internalType": "uint256",
              "name": "id",
              "type": "uint256"
            },
            {
              "internalType": "uint256",
              "name": "amount",
              "type": "uint256"
            },
            {
              "internalType": "uint256",
              "name": "depositedAt",
              "type": "uint256"
            }
          ],
          "internalType": "struct LendingPool.DepositInfo",
          "name": "d",
          "type": "tuple"
        }
      ],
      "name": "calculateInterest",
      "outputs": [
        {
          "internalType": "uint256",
          "name": "",
          "type": "uint256"
        }
      ],
      "stateMutability": "view",
      "type": "function"
    },
    {
      "inputs": [],
      "name": "deposit",
      "outputs": [],
      "stateMutability": "payable",
      "type": "function"
    },
    {
      "inputs": [
        {
          "internalType": "address",
          "name": "",
          "type": "address"
        },
        {
          "internalType": "uint256",
          "name": "",
          "type": "uint256"
        }
      ],
      "name": "deposits",
      "outputs": [
        {
          "internalType": "uint256",
          "name": "id",
          "type": "uint256"
        },
        {
          "internalType": "uint256",
          "name": "amount",
          "type": "uint256"
        },
        {
          "internalType": "uint256",
          "name": "depositedAt",
          "type": "uint256"
        }
      ],
      "stateMutability": "view",
      "type": "function"
    },
    {
      "inputs": [
        {
          "internalType": "address",
          "name": "user",
          "type": "address"
        }
      ],
      "name": "getUserDeposits",
      "outputs": [
        {
          "components": [
            {
              "internalType": "uint256",
              "name": "id",
              "type": "uint256"
            },
            {
              "internalType": "uint256",
              "name": "amount",
              "type": "uint256"
            },
            {
              "internalType": "uint256",
              "name": "depositedAt",
              "type": "uint256"
            }
          ],
          "internalType": "struct LendingPool.DepositInfo[]",
          "name": "",
          "type": "tuple[]"
        }
      ],
      "stateMutability": "view",
      "type": "function"
    },
    {
      "inputs": [],
      "name": "nextDepositId",
      "outputs": [
        {
          "internalType": "uint256",
          "name": "",
          "type": "uint256"
        }
      ],
      "stateMutability": "view",
      "type": "function"
    },
    {
      "inputs": [
        {
          "internalType": "uint256",
          "name": "depositId",
          "type": "uint256"
        },
        {
          "internalType": "uint256",
          "name": "amount",
          "type": "uint256"
        }
      ],
      "name": "withdraw",
      "outputs": [],
      "stateMutability": "nonpayable",
      "type": "function"
    },
    {
      "stateMutability": "payable",
      "type": "receive"
    }
  ],
  "bytecode": "0x6080604052348015600f57600080fd5b506112bb8061001f6000396000f3fe60806040526004361061008a5760003560e01c80638070a4bd116100595780638070a4bd14610152578063bfd167491461017d578063d0e30db0146101ba578063d6d68177146101c4578063e3363d4e1461020357610091565b8063191fe1ed146100965780632a5bf6d2146100c1578063441a3e70146100fe5780635dcc93911461012757610091565b3661009157005b600080fd5b3480156100a257600080fd5b506100ab61022e565b6040516100b89190610918565b60405180910390f35b3480156100cd57600080fd5b506100e860048036038101906100e391906109a0565b610234565b6040516100f59190610acd565b60405180910390f35b34801561010a57600080fd5b5061012560048036038101906101209190610b1b565b6102ef565b005b34801561013357600080fd5b5061013c6106cd565b6040516101499190610918565b60405180910390f35b34801561015e57600080fd5b506101676106d5565b6040516101749190610918565b60405180910390f35b34801561018957600080fd5b506101a4600480360381019061019f9190610c50565b6106db565b6040516101b19190610918565b60405180910390f35b6101c261075d565b005b3480156101d057600080fd5b506101eb60048036038101906101e69190610c7d565b6108b2565b6040516101fa93929190610cbd565b60405180910390f35b34801561020f57600080fd5b506102186108f9565b6040516102259190610918565b60405180910390f35b61271081565b60606000808373ffffffffffffffffffffffffffffffffffffffff1673ffffffffffffffffffffffffffffffffffffffff168152602001908152602001600020805480602002602001604051908101604052809291908181526020016000905b828210156102e45783829060005260206000209060030201604051806060016040529081600082015481526020016001820154815260200160028201548152505081526020019060010190610294565b505050509050919050565b60008060003373ffffffffffffffffffffffffffffffffffffffff1673ffffffffffffffffffffffffffffffffffffffff16815260200190815260200160002090506000805b8280549050811015610686578483828154811061035557610354610cf4565b5b9060005260206000209060030201600001540361067957600083828154811061038157610380610cf4565b5b9060005260206000209060030201905060008160010154116103d8576040517f08c379a00000000000000000000000000000000000000000000000000000000081526004016103cf90610d80565b60405180910390fd5b6000851180156103ec575080600101548511155b61042b576040517f08c379a000000000000000000000000000000000000000000000000000000000815260040161042290610dec565b60405180910390fd5b600061045f8260405180606001604052908160008201548152602001600182015481526020016002820154815250506106db565b90506000826001015487836104749190610e3b565b61047e9190610eac565b90506000818861048e9190610edd565b90507f3c5ad147104e56be34a9176a6692f7df8d2f4b29a5af06bc6b98970d329d6577886040516104bf9190610f5d565b60405180910390a17f3c5ad147104e56be34a9176a6692f7df8d2f4b29a5af06bc6b98970d329d6577826040516104f69190610fd7565b60405180910390a17f3c5ad147104e56be34a9176a6692f7df8d2f4b29a5af06bc6b98970d329d65778160405161052d9190611051565b60405180910390a187846001016000828254610549919061107f565b9250508190555060008460010154146105625742610565565b60005b846002018190555060003373ffffffffffffffffffffffffffffffffffffffff1682604051610593906110e4565b60006040518083038185875af1925050503d80600081146105d0576040519150601f19603f3d011682016040523d82523d6000602084013e6105d5565b606091505b5050905080610619576040517f08c379a000000000000000000000000000000000000000000000000000000000815260040161061090611145565b60405180910390fd5b3373ffffffffffffffffffffffffffffffffffffffff167f75e161b3e824b114fc1a33274bd7091918dd4e639cede50b78b15a4eea956a218b8b8660405161066393929190610cbd565b60405180910390a2600196505050505050610686565b8080600101915050610335565b50806106c7576040517f08c379a00000000000000000000000000000000000000000000000000000000081526004016106be906111b1565b60405180910390fd5b50505050565b6301e1338081565b60015481565b600080826020015114806106f3575060008260400151145b156107015760009050610758565b6000826040015142610713919061107f565b905060006301e133806127106107299190610e3b565b82610320866020015161073c9190610e3b565b6107469190610e3b565b6107509190610eac565b905080925050505b919050565b600034116107a0576040517f08c379a00000000000000000000000000000000000000000000000000000000081526004016107979061121d565b60405180910390fd5b6000803373ffffffffffffffffffffffffffffffffffffffff1673ffffffffffffffffffffffffffffffffffffffff1681526020019081526020016000206040518060600160405280600154815260200134815260200142815250908060018154018082558091505060019003906000526020600020906003020160009091909190915060008201518160000155602082015181600101556040820151816002015550503373ffffffffffffffffffffffffffffffffffffffff167f91ede45f04a37a7c170f5c1207df3b6bc748dc1e04ad5e917a241d0f52feada3600154344260405161089093929190610cbd565b60405180910390a2600160008154809291906108ab9061123d565b9190505550565b600060205281600052604060002081815481106108ce57600080fd5b9060005260206000209060030201600091509150508060000154908060010154908060020154905083565b61032081565b6000819050919050565b610912816108ff565b82525050565b600060208201905061092d6000830184610909565b92915050565b6000604051905090565b600080fd5b600073ffffffffffffffffffffffffffffffffffffffff82169050919050565b600061096d82610942565b9050919050565b61097d81610962565b811461098857600080fd5b50565b60008135905061099a81610974565b92915050565b6000602082840312156109b6576109b561093d565b5b60006109c48482850161098b565b91505092915050565b600081519050919050565b600082825260208201905092915050565b6000819050602082019050919050565b610a02816108ff565b82525050565b606082016000820151610a1e60008501826109f9565b506020820151610a3160208501826109f9565b506040820151610a4460408501826109f9565b50505050565b6000610a568383610a08565b60608301905092915050565b6000602082019050919050565b6000610a7a826109cd565b610a8481856109d8565b9350610a8f836109e9565b8060005b83811015610ac0578151610aa78882610a4a565b9750610ab283610a62565b925050600181019050610a93565b5085935050505092915050565b60006020820190508181036000830152610ae78184610a6f565b905092915050565b610af8816108ff565b8114610b0357600080fd5b50565b600081359050610b1581610aef565b92915050565b60008060408385031215610b3257610b3161093d565b5b6000610b4085828601610b06565b9250506020610b5185828601610b06565b9150509250929050565b600080fd5b6000601f19601f8301169050919050565b7f4e487b7100000000000000000000000000000000000000000000000000000000600052604160045260246000fd5b610ba982610b60565b810181811067ffffffffffffffff82111715610bc857610bc7610b71565b5b80604052505050565b6000610bdb610933565b9050610be78282610ba0565b919050565b600060608284031215610c0257610c01610b5b565b5b610c0c6060610bd1565b90506000610c1c84828501610b06565b6000830152506020610c3084828501610b06565b6020830152506040610c4484828501610b06565b60408301525092915050565b600060608284031215610c6657610c6561093d565b5b6000610c7484828501610bec565b91505092915050565b60008060408385031215610c9457610c9361093d565b5b6000610ca28582860161098b565b9250506020610cb385828601610b06565b9150509250929050565b6000606082019050610cd26000830186610909565b610cdf6020830185610909565b610cec6040830184610909565b949350505050565b7f4e487b7100000000000000000000000000000000000000000000000000000000600052603260045260246000fd5b600082825260208201905092915050565b7f4e6f7468696e6720746f20776974686472617700000000000000000000000000600082015250565b6000610d6a601383610d23565b9150610d7582610d34565b602082019050919050565b60006020820190508181036000830152610d9981610d5d565b9050919050565b7f496e76616c696420776974686472617720616d6f756e74000000000000000000600082015250565b6000610dd6601783610d23565b9150610de182610da0565b602082019050919050565b60006020820190508181036000830152610e0581610dc9565b9050919050565b7f4e487b7100000000000000000000000000000000000000000000000000000000600052601160045260246000fd5b6000610e46826108ff565b9150610e51836108ff565b9250828202610e5f816108ff565b91508282048414831517610e7657610e75610e0c565b5b5092915050565b7f4e487b7100000000000000000000000000000000000000000000000000000000600052601260045260246000fd5b6000610eb7826108ff565b9150610ec2836108ff565b925082610ed257610ed1610e7d565b5b828204905092915050565b6000610ee8826108ff565b9150610ef3836108ff565b9250828201905080821115610f0b57610f0a610e0c565b5b92915050565b7f77697468647261775f616d6f756e740000000000000000000000000000000000600082015250565b6000610f47600f83610d23565b9150610f5282610f11565b602082019050919050565b60006040820190508181036000830152610f7681610f3a565b9050610f856020830184610909565b92915050565b7f70726f706f7274696f6e616c5f696e7465726573740000000000000000000000600082015250565b6000610fc1601583610d23565b9150610fcc82610f8b565b602082019050919050565b60006040820190508181036000830152610ff081610fb4565b9050610fff6020830184610909565b92915050565b7f746f74616c5f746f5f7769746864726177000000000000000000000000000000600082015250565b600061103b601183610d23565b915061104682611005565b602082019050919050565b6000604082019050818103600083015261106a8161102e565b90506110796020830184610909565b92915050565b600061108a826108ff565b9150611095836108ff565b92508282039050818111156110ad576110ac610e0c565b5b92915050565b600081905092915050565b50565b60006110ce6000836110b3565b91506110d9826110be565b600082019050919050565b60006110ef826110c1565b9150819050919050565b7f5472616e73666572206661696c65640000000000000000000000000000000000600082015250565b600061112f600f83610d23565b915061113a826110f9565b602082019050919050565b6000602082019050818103600083015261115e81611122565b9050919050565b7f4465706f736974204944206e6f7420666f756e64000000000000000000000000600082015250565b600061119b601483610d23565b91506111a682611165565b602082019050919050565b600060208201905081810360008301526111ca8161118e565b9050919050565b7f53656e6420736f6d6520474f0000000000000000000000000000000000000000600082015250565b6000611207600c83610d23565b9150611212826111d1565b602082019050919050565b60006020820190508181036000830152611236816111fa565b9050919050565b6000611248826108ff565b91507fffffffffffffffffffffffffffffffffffffffffffffffffffffffffffffffff820361127a57611279610e0c565b5b60018201905091905056fea2646970667358221220c877c6253254b69184870b89e5b67027f8d481642275d4a6cd0a6cb5481cbd0464736f6c634300081c0033",
  "linkReferences": {},
  "deployedLinkReferences": {}
}