{
  "_format": "hh-sol-artifact-1",
  "contractName": "LendingPool",
  "sourceName": "contracts/LendingPool.sol",
  "abi": [
    {
      "anonymous": false,
      "inputs": [
        {
          "indexed": false,
          "internalType": "string",
          "name": "label",
          "type": "string"
        },
        {
          "indexed": false,
          "internalType": "uint256",
          "name": "value",
          "type": "uint256"
        }
      ],
      "name": "Debug",
      "type": "event"
    },
    {
      "anonymous": false,
      "inputs": [
        {
          "indexed": true,
          "internalType": "address",
          "name": "user",
          "type": "address"
        },
        {
          "indexed": false,
          "internalType": "uint256",
          "name": "depositId",
          "type": "uint256"
        },
        {
          "indexed": false,
          "internalType": "uint256",
          "name": "amount",
          "type": "uint256"
        },
        {
          "indexed": false,
          "internalType": "uint256",
          "name": "apyBps",
          "type": "uint256"
        },
        {
          "indexed": false,
          "internalType": "uint256",
          "name": "timestamp",
          "type": "uint256"
        }
      ],
      "name": "Deposited",
      "type": "event"
    },
    {
      "anonymous": false,
      "inputs": [
        {
          "indexed": true,
          "internalType": "address",
          "name": "user",
          "type": "address"
        },
        {
          "indexed": false,
          "internalType": "uint256",
          "name": "depositId",
          "type": "uint256"
        },
        {
          "indexed": false,
          "internalType": "uint256",
          "name": "amount",
          "type": "uint256"
        },
        {
          "indexed": false,
          "internalType": "uint256",
          "name": "interest",
          "type": "uint256"
        }
      ],
      "name": "Withdrawn",
      "type": "event"
    },
    {
      "inputs": [],
      "name": "BPS_DIVISOR",
      "outputs": [
        {
          "internalType": "uint256",
          "name": "",
          "type": "uint256"
        }
      ],
      "stateMutability": "view",
      "type": "function"
    },
    {
      "inputs": [],
      "name": "SECONDS_IN_YEAR",
      "outputs": [
        {
          "internalType": "uint256",
          "name": "",
          "type": "uint256"
        }
      ],
      "stateMutability": "view",
      "type": "function"
    },
    {
      "inputs": [
        {
          "components": [
            {
              "internalType": "uint256",
              "name": "id",
              "type": "uint256"
            },
            {
              "internalType": "uint256",
              "name": "amount",
              "type": "uint256"
            },
            {
              "internalType": "uint256",
              "name": "depositedAt",
              "type": "uint256"
            },
            {
              "internalType": "uint256",
              "name": "apyBps",
              "type": "uint256"
            }
          ],
          "internalType": "struct LendingPool.DepositInfo",
          "name": "d",
          "type": "tuple"
        }
      ],
      "name": "calculateInterest",
      "outputs": [
        {
          "internalType": "uint256",
          "name": "interest",
          "type": "uint256"
        }
      ],
      "stateMutability": "view",
      "type": "function"
    },
    {
      "inputs": [
        {
          "internalType": "uint256",
          "name": "apyBps",
          "type": "uint256"
        }
      ],
      "name": "deposit",
      "outputs": [],
      "stateMutability": "payable",
      "type": "function"
    },
    {
      "inputs": [
        {
          "internalType": "address",
          "name": "",
          "type": "address"
        },
        {
          "internalType": "uint256",
          "name": "",
          "type": "uint256"
        }
      ],
      "name": "deposits",
      "outputs": [
        {
          "internalType": "uint256",
          "name": "id",
          "type": "uint256"
        },
        {
          "internalType": "uint256",
          "name": "amount",
          "type": "uint256"
        },
        {
          "internalType": "uint256",
          "name": "depositedAt",
          "type": "uint256"
        },
        {
          "internalType": "uint256",
          "name": "apyBps",
          "type": "uint256"
        }
      ],
      "stateMutability": "view",
      "type": "function"
    },
    {
      "inputs": [
        {
          "internalType": "address",
          "name": "user",
          "type": "address"
        }
      ],
      "name": "getUserDeposits",
      "outputs": [
        {
          "components": [
            {
              "internalType": "uint256",
              "name": "id",
              "type": "uint256"
            },
            {
              "internalType": "uint256",
              "name": "amount",
              "type": "uint256"
            },
            {
              "internalType": "uint256",
              "name": "depositedAt",
              "type": "uint256"
            },
            {
              "internalType": "uint256",
              "name": "apyBps",
              "type": "uint256"
            }
          ],
          "internalType": "struct LendingPool.DepositInfo[]",
          "name": "",
          "type": "tuple[]"
        }
      ],
      "stateMutability": "view",
      "type": "function"
    },
    {
      "inputs": [],
      "name": "nextDepositId",
      "outputs": [
        {
          "internalType": "uint256",
          "name": "",
          "type": "uint256"
        }
      ],
      "stateMutability": "view",
      "type": "function"
    },
    {
      "inputs": [
        {
          "internalType": "uint256",
          "name": "depositId",
          "type": "uint256"
        },
        {
          "internalType": "uint256",
          "name": "amount",
          "type": "uint256"
        }
      ],
      "name": "withdraw",
      "outputs": [],
      "stateMutability": "nonpayable",
      "type": "function"
    },
    {
      "stateMutability": "payable",
      "type": "receive"
    }
  ],
  "bytecode": "0x6080604052348015600f57600080fd5b506114198061001f6000396000f3fe60806040526004361061007f5760003560e01c80635dcc93911161004e5780635dcc9391146101595780638070a4bd14610184578063b6b55f25146101af578063d6d68177146101cb57610086565b8063191fe1ed1461008b5780632a5bf6d2146100b6578063441a3e70146100f35780634727959e1461011c57610086565b3661008657005b600080fd5b34801561009757600080fd5b506100a061020b565b6040516100ad9190610971565b60405180910390f35b3480156100c257600080fd5b506100dd60048036038101906100d891906109f9565b610211565b6040516100ea9190610b39565b60405180910390f35b3480156100ff57600080fd5b5061011a60048036038101906101159190610b87565b6102d6565b005b34801561012857600080fd5b50610143600480360381019061013e9190610cd0565b6106d2565b6040516101509190610971565b60405180910390f35b34801561016557600080fd5b5061016e610750565b60405161017b9190610971565b60405180910390f35b34801561019057600080fd5b50610199610758565b6040516101a69190610971565b60405180910390f35b6101c960048036038101906101c49190610cfd565b61075e565b005b3480156101d757600080fd5b506101f260048036038101906101ed9190610d2a565b61090b565b6040516102029493929190610d6a565b60405180910390f35b61271081565b60606000808373ffffffffffffffffffffffffffffffffffffffff1673ffffffffffffffffffffffffffffffffffffffff168152602001908152602001600020805480602002602001604051908101604052809291908181526020016000905b828210156102cb578382906000526020600020906004020160405180608001604052908160008201548152602001600182015481526020016002820154815260200160038201548152505081526020019060010190610271565b505050509050919050565b60008060003373ffffffffffffffffffffffffffffffffffffffff1673ffffffffffffffffffffffffffffffffffffffff16815260200190815260200160002090506000805b828054905081101561068b578483828154811061033c5761033b610daf565b5b9060005260206000209060040201600001540361067e57600083828154811061036857610367610daf565b5b9060005260206000209060040201905060008160010154116103bf576040517f08c379a00000000000000000000000000000000000000000000000000000000081526004016103b690610e3b565b60405180910390fd5b6000851180156103d3575080600101548511155b610412576040517f08c379a000000000000000000000000000000000000000000000000000000000815260040161040990610ea7565b60405180910390fd5b60008160020154426104249190610ef6565b905060006301e1338061271061043a9190610f2a565b828460030154856001015461044f9190610f2a565b6104599190610f2a565b6104639190610f9b565b90506000836001015488836104789190610f2a565b6104829190610f9b565b9050600081896104929190610fcc565b90507f3c5ad147104e56be34a9176a6692f7df8d2f4b29a5af06bc6b98970d329d6577896040516104c3919061104c565b60405180910390a17f3c5ad147104e56be34a9176a6692f7df8d2f4b29a5af06bc6b98970d329d6577826040516104fa91906110c6565b60405180910390a17f3c5ad147104e56be34a9176a6692f7df8d2f4b29a5af06bc6b98970d329d6577816040516105319190611140565b60405180910390a18885600101600082825461054d9190610ef6565b9250508190555060008560010154146105665742610569565b60005b856002018190555060003373ffffffffffffffffffffffffffffffffffffffff16826040516105979061119f565b60006040518083038185875af1925050503d80600081146105d4576040519150601f19603f3d011682016040523d82523d6000602084013e6105d9565b606091505b505090508061061d576040517f08c379a000000000000000000000000000000000000000000000000000000000815260040161061490611200565b60405180910390fd5b3373ffffffffffffffffffffffffffffffffffffffff167f75e161b3e824b114fc1a33274bd7091918dd4e639cede50b78b15a4eea956a218c8c8660405161066793929190611220565b60405180910390a26001975050505050505061068b565b808060010191505061031c565b50806106cc576040517f08c379a00000000000000000000000000000000000000000000000000000000081526004016106c3906112a3565b60405180910390fd5b50505050565b600080826020015114806106ea575060008260400151145b156106f8576000905061074b565b600082604001514261070a9190610ef6565b90506301e1338061271061071e9190610f2a565b81846060015185602001516107339190610f2a565b61073d9190610f2a565b6107479190610f9b565b9150505b919050565b6301e1338081565b60015481565b600034116107a1576040517f08c379a00000000000000000000000000000000000000000000000000000000081526004016107989061130f565b60405180910390fd5b6127108111156107e6576040517f08c379a00000000000000000000000000000000000000000000000000000000081526004016107dd9061137b565b60405180910390fd5b6000803373ffffffffffffffffffffffffffffffffffffffff1673ffffffffffffffffffffffffffffffffffffffff168152602001908152602001600020604051806080016040528060015481526020013481526020014281526020018381525090806001815401808255809150506001900390600052602060002090600402016000909190919091506000820151816000015560208201518160010155604082015181600201556060820151816003015550503373ffffffffffffffffffffffffffffffffffffffff167fe3b53cd1a44fbf11535e145d80b8ef1ed6d57a73bf5daa7e939b6b01657d65496001543484426040516108e89493929190610d6a565b60405180910390a2600160008154809291906109039061139b565b919050555050565b6000602052816000526040600020818154811061092757600080fd5b9060005260206000209060040201600091509150508060000154908060010154908060020154908060030154905084565b6000819050919050565b61096b81610958565b82525050565b60006020820190506109866000830184610962565b92915050565b6000604051905090565b600080fd5b600073ffffffffffffffffffffffffffffffffffffffff82169050919050565b60006109c68261099b565b9050919050565b6109d6816109bb565b81146109e157600080fd5b50565b6000813590506109f3816109cd565b92915050565b600060208284031215610a0f57610a0e610996565b5b6000610a1d848285016109e4565b91505092915050565b600081519050919050565b600082825260208201905092915050565b6000819050602082019050919050565b610a5b81610958565b82525050565b608082016000820151610a776000850182610a52565b506020820151610a8a6020850182610a52565b506040820151610a9d6040850182610a52565b506060820151610ab06060850182610a52565b50505050565b6000610ac28383610a61565b60808301905092915050565b6000602082019050919050565b6000610ae682610a26565b610af08185610a31565b9350610afb83610a42565b8060005b83811015610b2c578151610b138882610ab6565b9750610b1e83610ace565b925050600181019050610aff565b5085935050505092915050565b60006020820190508181036000830152610b538184610adb565b905092915050565b610b6481610958565b8114610b6f57600080fd5b50565b600081359050610b8181610b5b565b92915050565b60008060408385031215610b9e57610b9d610996565b5b6000610bac85828601610b72565b9250506020610bbd85828601610b72565b9150509250929050565b600080fd5b6000601f19601f8301169050919050565b7f4e487b7100000000000000000000000000000000000000000000000000000000600052604160045260246000fd5b610c1582610bcc565b810181811067ffffffffffffffff82111715610c3457610c33610bdd565b5b80604052505050565b6000610c4761098c565b9050610c538282610c0c565b919050565b600060808284031215610c6e57610c6d610bc7565b5b610c786080610c3d565b90506000610c8884828501610b72565b6000830152506020610c9c84828501610b72565b6020830152506040610cb084828501610b72565b6040830152506060610cc484828501610b72565b60608301525092915050565b600060808284031215610ce657610ce5610996565b5b6000610cf484828501610c58565b91505092915050565b600060208284031215610d1357610d12610996565b5b6000610d2184828501610b72565b91505092915050565b60008060408385031215610d4157610d40610996565b5b6000610d4f858286016109e4565b9250506020610d6085828601610b72565b9150509250929050565b6000608082019050610d7f6000830187610962565b610d8c6020830186610962565b610d996040830185610962565b610da66060830184610962565b95945050505050565b7f4e487b7100000000000000000000000000000000000000000000000000000000600052603260045260246000fd5b600082825260208201905092915050565b7f4e6f7468696e6720746f20776974686472617700000000000000000000000000600082015250565b6000610e25601383610dde565b9150610e3082610def565b602082019050919050565b60006020820190508181036000830152610e5481610e18565b9050919050565b7f496e76616c696420776974686472617720616d6f756e74000000000000000000600082015250565b6000610e91601783610dde565b9150610e9c82610e5b565b602082019050919050565b60006020820190508181036000830152610ec081610e84565b9050919050565b7f4e487b7100000000000000000000000000000000000000000000000000000000600052601160045260246000fd5b6000610f0182610958565b9150610f0c83610958565b9250828203905081811115610f2457610f23610ec7565b5b92915050565b6000610f3582610958565b9150610f4083610958565b9250828202610f4e81610958565b91508282048414831517610f6557610f64610ec7565b5b5092915050565b7f4e487b7100000000000000000000000000000000000000000000000000000000600052601260045260246000fd5b6000610fa682610958565b9150610fb183610958565b925082610fc157610fc0610f6c565b5b828204905092915050565b6000610fd782610958565b9150610fe283610958565b9250828201905080821115610ffa57610ff9610ec7565b5b92915050565b7f77697468647261775f616d6f756e740000000000000000000000000000000000600082015250565b6000611036600f83610dde565b915061104182611000565b602082019050919050565b6000604082019050818103600083015261106581611029565b90506110746020830184610962565b92915050565b7f70726f72617465645f696e746572657374000000000000000000000000000000600082015250565b60006110b0601183610dde565b91506110bb8261107a565b602082019050919050565b600060408201905081810360008301526110df816110a3565b90506110ee6020830184610962565b92915050565b7f746f74616c5f7061796f75740000000000000000000000000000000000000000600082015250565b600061112a600c83610dde565b9150611135826110f4565b602082019050919050565b600060408201905081810360008301526111598161111d565b90506111686020830184610962565b92915050565b600081905092915050565b50565b600061118960008361116e565b915061119482611179565b600082019050919050565b60006111aa8261117c565b9150819050919050565b7f5472616e73666572206661696c65640000000000000000000000000000000000600082015250565b60006111ea600f83610dde565b91506111f5826111b4565b602082019050919050565b60006020820190508181036000830152611219816111dd565b9050919050565b60006060820190506112356000830186610962565b6112426020830185610962565b61124f6040830184610962565b949350505050565b7f4465706f736974204944206e6f7420666f756e64000000000000000000000000600082015250565b600061128d601483610dde565b915061129882611257565b602082019050919050565b600060208201905081810360008301526112bc81611280565b9050919050565b7f53656e6420736f6d652045544800000000000000000000000000000000000000600082015250565b60006112f9600d83610dde565b9150611304826112c3565b602082019050919050565b60006020820190508181036000830152611328816112ec565b9050919050565b7f496e76616c696420415059000000000000000000000000000000000000000000600082015250565b6000611365600b83610dde565b91506113708261132f565b602082019050919050565b6000602082019050818103600083015261139481611358565b9050919050565b60006113a682610958565b91507fffffffffffffffffffffffffffffffffffffffffffffffffffffffffffffffff82036113d8576113d7610ec7565b5b60018201905091905056fea26469706673582212200a24d3c30807f9c2b60dcbbb881bf8b147457723a73341de7672826ca9e68af464736f6c634300081c0033",
  "linkReferences": {},
  "deployedLinkReferences": {}
}