{
  "_format": "hh-sol-artifact-1",
  "contractName": "LendingBorrowingPool",
  "sourceName": "contracts/LendingPool.sol",
  "abi": [
    {
      "anonymous": false,
      "inputs": [
        {
          "indexed": false,
          "internalType": "uint256",
          "name": "loanId",
          "type": "uint256"
        },
        {
          "indexed": true,
          "internalType": "address",
          "name": "borrower",
          "type": "address"
        },
        {
          "indexed": false,
          "internalType": "uint256",
          "name": "amount",
          "type": "uint256"
        },
        {
          "indexed": false,
          "internalType": "uint256",
          "name": "collateral",
          "type": "uint256"
        },
        {
          "indexed": false,
          "internalType": "string",
          "name": "collateralToken",
          "type": "string"
        },
        {
          "indexed": false,
          "internalType": "uint256",
          "name": "duration",
          "type": "uint256"
        },
        {
          "indexed": false,
          "internalType": "uint256",
          "name": "startTime",
          "type": "uint256"
        }
      ],
      "name": "Borrowed",
      "type": "event"
    },
    {
      "anonymous": false,
      "inputs": [
        {
          "indexed": false,
          "internalType": "string",
          "name": "label",
          "type": "string"
        },
        {
          "indexed": false,
          "internalType": "uint256",
          "name": "value",
          "type": "uint256"
        }
      ],
      "name": "Debug",
      "type": "event"
    },
    {
      "anonymous": false,
      "inputs": [
        {
          "indexed": true,
          "internalType": "address",
          "name": "user",
          "type": "address"
        },
        {
          "indexed": false,
          "internalType": "uint256",
          "name": "depositId",
          "type": "uint256"
        },
        {
          "indexed": false,
          "internalType": "uint256",
          "name": "amount",
          "type": "uint256"
        },
        {
          "indexed": false,
          "internalType": "uint256",
          "name": "apyBps",
          "type": "uint256"
        },
        {
          "indexed": false,
          "internalType": "uint256",
          "name": "timestamp",
          "type": "uint256"
        }
      ],
      "name": "Deposited",
      "type": "event"
    },
    {
      "anonymous": false,
      "inputs": [
        {
          "indexed": false,
          "internalType": "uint256",
          "name": "loanId",
          "type": "uint256"
        },
        {
          "indexed": true,
          "internalType": "address",
          "name": "borrower",
          "type": "address"
        },
        {
          "indexed": false,
          "internalType": "uint256",
          "name": "amount",
          "type": "uint256"
        },
        {
          "indexed": false,
          "internalType": "uint256",
          "name": "repaidAt",
          "type": "uint256"
        }
      ],
      "name": "Repaid",
      "type": "event"
    },
    {
      "anonymous": false,
      "inputs": [
        {
          "indexed": true,
          "internalType": "address",
          "name": "user",
          "type": "address"
        },
        {
          "indexed": false,
          "internalType": "uint256",
          "name": "depositId",
          "type": "uint256"
        },
        {
          "indexed": false,
          "internalType": "uint256",
          "name": "amount",
          "type": "uint256"
        },
        {
          "indexed": false,
          "internalType": "uint256",
          "name": "interest",
          "type": "uint256"
        }
      ],
      "name": "Withdrawn",
      "type": "event"
    },
    {
      "inputs": [],
      "name": "BPS_DIVISOR",
      "outputs": [
        {
          "internalType": "uint256",
          "name": "",
          "type": "uint256"
        }
      ],
      "stateMutability": "view",
      "type": "function"
    },
    {
      "inputs": [],
      "name": "SECONDS_IN_YEAR",
      "outputs": [
        {
          "internalType": "uint256",
          "name": "",
          "type": "uint256"
        }
      ],
      "stateMutability": "view",
      "type": "function"
    },
    {
      "inputs": [
        {
          "components": [
            {
              "internalType": "uint256",
              "name": "id",
              "type": "uint256"
            },
            {
              "internalType": "uint256",
              "name": "amount",
              "type": "uint256"
            },
            {
              "internalType": "uint256",
              "name": "depositedAt",
              "type": "uint256"
            },
            {
              "internalType": "uint256",
              "name": "apyBps",
              "type": "uint256"
            }
          ],
          "internalType": "struct LendingBorrowingPool.DepositInfo",
          "name": "d",
          "type": "tuple"
        }
      ],
      "name": "calculateInterest",
      "outputs": [
        {
          "internalType": "uint256",
          "name": "interest",
          "type": "uint256"
        }
      ],
      "stateMutability": "view",
      "type": "function"
    },
    {
      "inputs": [
        {
          "internalType": "uint256",
          "name": "apyBps",
          "type": "uint256"
        }
      ],
      "name": "deposit",
      "outputs": [],
      "stateMutability": "payable",
      "type": "function"
    },
    {
      "inputs": [
        {
          "internalType": "address",
          "name": "",
          "type": "address"
        },
        {
          "internalType": "uint256",
          "name": "",
          "type": "uint256"
        }
      ],
      "name": "deposits",
      "outputs": [
        {
          "internalType": "uint256",
          "name": "id",
          "type": "uint256"
        },
        {
          "internalType": "uint256",
          "name": "amount",
          "type": "uint256"
        },
        {
          "internalType": "uint256",
          "name": "depositedAt",
          "type": "uint256"
        },
        {
          "internalType": "uint256",
          "name": "apyBps",
          "type": "uint256"
        }
      ],
      "stateMutability": "view",
      "type": "function"
    },
    {
      "inputs": [
        {
          "internalType": "address",
          "name": "user",
          "type": "address"
        },
        {
          "internalType": "uint256",
          "name": "loanId",
          "type": "uint256"
        }
      ],
      "name": "getLoan",
      "outputs": [
        {
          "internalType": "uint256",
          "name": "amount",
          "type": "uint256"
        },
        {
          "internalType": "bool",
          "name": "active",
          "type": "bool"
        },
        {
          "internalType": "address",
          "name": "borrower",
          "type": "address"
        },
        {
          "internalType": "uint256",
          "name": "collateral",
          "type": "uint256"
        }
      ],
      "stateMutability": "view",
      "type": "function"
    },
    {
      "inputs": [
        {
          "internalType": "address",
          "name": "user",
          "type": "address"
        }
      ],
      "name": "getLoans",
      "outputs": [
        {
          "components": [
            {
              "internalType": "uint256",
              "name": "id",
              "type": "uint256"
            },
            {
              "internalType": "address",
              "name": "borrower",
              "type": "address"
            },
            {
              "internalType": "uint256",
              "name": "amount",
              "type": "uint256"
            },
            {
              "internalType": "uint256",
              "name": "collateral",
              "type": "uint256"
            },
            {
              "internalType": "string",
              "name": "collateralToken",
              "type": "string"
            },
            {
              "internalType": "uint256",
              "name": "duration",
              "type": "uint256"
            },
            {
              "internalType": "uint256",
              "name": "startTime",
              "type": "uint256"
            },
            {
              "internalType": "bool",
              "name": "active",
              "type": "bool"
            }
          ],
          "internalType": "struct LendingBorrowingPool.Loan[]",
          "name": "",
          "type": "tuple[]"
        }
      ],
      "stateMutability": "view",
      "type": "function"
    },
    {
      "inputs": [
        {
          "internalType": "address",
          "name": "user",
          "type": "address"
        }
      ],
      "name": "getUserDeposits",
      "outputs": [
        {
          "components": [
            {
              "internalType": "uint256",
              "name": "id",
              "type": "uint256"
            },
            {
              "internalType": "uint256",
              "name": "amount",
              "type": "uint256"
            },
            {
              "internalType": "uint256",
              "name": "depositedAt",
              "type": "uint256"
            },
            {
              "internalType": "uint256",
              "name": "apyBps",
              "type": "uint256"
            }
          ],
          "internalType": "struct LendingBorrowingPool.DepositInfo[]",
          "name": "",
          "type": "tuple[]"
        }
      ],
      "stateMutability": "view",
      "type": "function"
    },
    {
      "inputs": [
        {
          "internalType": "address",
          "name": "",
          "type": "address"
        },
        {
          "internalType": "uint256",
          "name": "",
          "type": "uint256"
        }
      ],
      "name": "loans",
      "outputs": [
        {
          "internalType": "uint256",
          "name": "id",
          "type": "uint256"
        },
        {
          "internalType": "address",
          "name": "borrower",
          "type": "address"
        },
        {
          "internalType": "uint256",
          "name": "amount",
          "type": "uint256"
        },
        {
          "internalType": "uint256",
          "name": "collateral",
          "type": "uint256"
        },
        {
          "internalType": "string",
          "name": "collateralToken",
          "type": "string"
        },
        {
          "internalType": "uint256",
          "name": "duration",
          "type": "uint256"
        },
        {
          "internalType": "uint256",
          "name": "startTime",
          "type": "uint256"
        },
        {
          "internalType": "bool",
          "name": "active",
          "type": "bool"
        }
      ],
      "stateMutability": "view",
      "type": "function"
    },
    {
      "inputs": [],
      "name": "nextDepositId",
      "outputs": [
        {
          "internalType": "uint256",
          "name": "",
          "type": "uint256"
        }
      ],
      "stateMutability": "view",
      "type": "function"
    },
    {
      "inputs": [],
      "name": "nextLoanId",
      "outputs": [
        {
          "internalType": "uint256",
          "name": "",
          "type": "uint256"
        }
      ],
      "stateMutability": "view",
      "type": "function"
    },
    {
      "inputs": [],
      "name": "repayLoan",
      "outputs": [],
      "stateMutability": "payable",
      "type": "function"
    },
    {
      "inputs": [
        {
          "internalType": "uint256",
          "name": "loanId",
          "type": "uint256"
        },
        {
          "internalType": "uint256",
          "name": "amountDueWei",
          "type": "uint256"
        },
        {
          "internalType": "address",
          "name": "borrower",
          "type": "address"
        },
        {
          "internalType": "uint256",
          "name": "collateralWei",
          "type": "uint256"
        }
      ],
      "name": "repayLoanBypass",
      "outputs": [],
      "stateMutability": "payable",
      "type": "function"
    },
    {
      "inputs": [
        {
          "internalType": "uint256",
          "name": "amount",
          "type": "uint256"
        },
        {
          "internalType": "string",
          "name": "collateralToken",
          "type": "string"
        },
        {
          "internalType": "uint256",
          "name": "duration",
          "type": "uint256"
        }
      ],
      "name": "requestLoan",
      "outputs": [],
      "stateMutability": "payable",
      "type": "function"
    },
    {
      "inputs": [
        {
          "internalType": "uint256",
          "name": "depositId",
          "type": "uint256"
        },
        {
          "internalType": "uint256",
          "name": "amount",
          "type": "uint256"
        }
      ],
      "name": "withdraw",
      "outputs": [],
      "stateMutability": "nonpayable",
      "type": "function"
    },
    {
      "stateMutability": "payable",
      "type": "receive"
    }
  ],
  "bytecode": "0x60806040526001600355348015601457600080fd5b506130b1806100246000396000f3fe6080604052600436106100ec5760003560e01c806387c514591161008a578063d6d6817711610059578063d6d6817714610303578063d988ef2014610343578063f1604fee14610380578063f966ade71461039c576100f3565b806387c514591461023857806398c61c3714610263578063a1c51586146102a7578063b6b55f25146102e7576100f3565b8063441a3e70116100c6578063441a3e701461017c5780634727959e146101a55780635dcc9391146101e25780638070a4bd1461020d576100f3565b8063191fe1ed146100f85780632a5bf6d21461012357806333aa99ee14610160576100f3565b366100f357005b600080fd5b34801561010457600080fd5b5061010d6103a6565b60405161011a91906118c0565b60405180910390f35b34801561012f57600080fd5b5061014a6004803603810190610145919061194d565b6103ac565b6040516101579190611a8d565b60405180910390f35b61017a60048036038101906101759190611adb565b610471565b005b34801561018857600080fd5b506101a3600480360381019061019e9190611b42565b6106f9565b005b3480156101b157600080fd5b506101cc60048036038101906101c79190611c8b565b610af5565b6040516101d991906118c0565b60405180910390f35b3480156101ee57600080fd5b506101f7610b73565b60405161020491906118c0565b60405180910390f35b34801561021957600080fd5b50610222610b7b565b60405161022f91906118c0565b60405180910390f35b34801561024457600080fd5b5061024d610b81565b60405161025a91906118c0565b60405180910390f35b34801561026f57600080fd5b5061028a60048036038101906102859190611cb8565b610b87565b60405161029e989796959493929190611da1565b60405180910390f35b3480156102b357600080fd5b506102ce60048036038101906102c99190611cb8565b610ca1565b6040516102de9493929190611e26565b60405180910390f35b61030160048036038101906102fc9190611e6b565b610dec565b005b34801561030f57600080fd5b5061032a60048036038101906103259190611cb8565b610f99565b60405161033a9493929190611e98565b60405180910390f35b34801561034f57600080fd5b5061036a6004803603810190610365919061194d565b610fe6565b60405161037791906120b7565b60405180910390f35b61039a60048036038101906103959190612193565b6111ba565b005b6103a4611558565b005b61271081565b60606000808373ffffffffffffffffffffffffffffffffffffffff1673ffffffffffffffffffffffffffffffffffffffff168152602001908152602001600020805480602002602001604051908101604052809291908181526020016000905b8282101561046657838290600052602060002090600402016040518060800160405290816000820154815260200160018201548152602001600282015481526020016003820154815250508152602001906001019061040c565b505050509050919050565b8173ffffffffffffffffffffffffffffffffffffffff163373ffffffffffffffffffffffffffffffffffffffff16146104df576040517f08c379a00000000000000000000000000000000000000000000000000000000081526004016104d69061224e565b60405180910390fd5b82341015610522576040517f08c379a0000000000000000000000000000000000000000000000000000000008152600401610519906122ba565b60405180910390fd5b60008111156105d95760008273ffffffffffffffffffffffffffffffffffffffff16826040516105519061230b565b60006040518083038185875af1925050503d806000811461058e576040519150601f19603f3d011682016040523d82523d6000602084013e610593565b606091505b50509050806105d7576040517f08c379a00000000000000000000000000000000000000000000000000000000081526004016105ce9061236c565b60405180910390fd5b505b600083346105e791906123bb565b905060008111156106a05760003373ffffffffffffffffffffffffffffffffffffffff16826040516106189061230b565b60006040518083038185875af1925050503d8060008114610655576040519150601f19603f3d011682016040523d82523d6000602084013e61065a565b606091505b505090508061069e576040517f08c379a00000000000000000000000000000000000000000000000000000000081526004016106959061243b565b60405180910390fd5b505b8273ffffffffffffffffffffffffffffffffffffffff167f82f3cd1e351c1cf149e065782737f7cd0d51ef52fdb03157f0490fc9d069ab478686426040516106ea9392919061245b565b60405180910390a25050505050565b60008060003373ffffffffffffffffffffffffffffffffffffffff1673ffffffffffffffffffffffffffffffffffffffff16815260200190815260200160002090506000805b8280549050811015610aae578483828154811061075f5761075e612492565b5b90600052602060002090600402016000015403610aa157600083828154811061078b5761078a612492565b5b9060005260206000209060040201905060008160010154116107e2576040517f08c379a00000000000000000000000000000000000000000000000000000000081526004016107d99061250d565b60405180910390fd5b6000851180156107f6575080600101548511155b610835576040517f08c379a000000000000000000000000000000000000000000000000000000000815260040161082c90612579565b60405180910390fd5b600081600201544261084791906123bb565b905060006301e1338061271061085d9190612599565b82846003015485600101546108729190612599565b61087c9190612599565b610886919061260a565b905060008360010154888361089b9190612599565b6108a5919061260a565b9050600081896108b5919061263b565b90507f3c5ad147104e56be34a9176a6692f7df8d2f4b29a5af06bc6b98970d329d6577896040516108e691906126bb565b60405180910390a17f3c5ad147104e56be34a9176a6692f7df8d2f4b29a5af06bc6b98970d329d65778260405161091d9190612735565b60405180910390a17f3c5ad147104e56be34a9176a6692f7df8d2f4b29a5af06bc6b98970d329d65778160405161095491906127af565b60405180910390a18885600101600082825461097091906123bb565b925050819055506000856001015414610989574261098c565b60005b856002018190555060003373ffffffffffffffffffffffffffffffffffffffff16826040516109ba9061230b565b60006040518083038185875af1925050503d80600081146109f7576040519150601f19603f3d011682016040523d82523d6000602084013e6109fc565b606091505b5050905080610a40576040517f08c379a0000000000000000000000000000000000000000000000000000000008152600401610a3790612829565b60405180910390fd5b3373ffffffffffffffffffffffffffffffffffffffff167f75e161b3e824b114fc1a33274bd7091918dd4e639cede50b78b15a4eea956a218c8c86604051610a8a9392919061245b565b60405180910390a260019750505050505050610aae565b808060010191505061073f565b5080610aef576040517f08c379a0000000000000000000000000000000000000000000000000000000008152600401610ae690612895565b60405180910390fd5b50505050565b60008082602001511480610b0d575060008260400151145b15610b1b5760009050610b6e565b6000826040015142610b2d91906123bb565b90506301e13380612710610b419190612599565b8184606001518560200151610b569190612599565b610b609190612599565b610b6a919061260a565b9150505b919050565b6301e1338081565b60025481565b60035481565b60016020528160005260406000208181548110610ba357600080fd5b9060005260206000209060080201600091509150508060000154908060010160009054906101000a900473ffffffffffffffffffffffffffffffffffffffff1690806002015490806003015490806004018054610bff906128e4565b80601f0160208091040260200160405190810160405280929190818152602001828054610c2b906128e4565b8015610c785780601f10610c4d57610100808354040283529160200191610c78565b820191906000526020600020905b815481529060010190602001808311610c5b57829003601f168201915b5050505050908060050154908060060154908060070160009054906101000a900460ff16905088565b6000806000806000600160008873ffffffffffffffffffffffffffffffffffffffff1673ffffffffffffffffffffffffffffffffffffffff168152602001908152602001600020905060005b8180549050811015610da75786828281548110610d0d57610d0c612492565b5b90600052602060002090600802016000015403610d9a576000828281548110610d3957610d38612492565b5b9060005260206000209060080201905080600201548160070160009054906101000a900460ff168260010160009054906101000a900473ffffffffffffffffffffffffffffffffffffffff1683600301549650965096509650505050610de3565b8080600101915050610ced565b506040517f08c379a0000000000000000000000000000000000000000000000000000000008152600401610dda90612961565b60405180910390fd5b92959194509250565b60003411610e2f576040517f08c379a0000000000000000000000000000000000000000000000000000000008152600401610e26906129cd565b60405180910390fd5b612710811115610e74576040517f08c379a0000000000000000000000000000000000000000000000000000000008152600401610e6b90612a39565b60405180910390fd5b6000803373ffffffffffffffffffffffffffffffffffffffff1673ffffffffffffffffffffffffffffffffffffffff168152602001908152602001600020604051806080016040528060025481526020013481526020014281526020018381525090806001815401808255809150506001900390600052602060002090600402016000909190919091506000820151816000015560208201518160010155604082015181600201556060820151816003015550503373ffffffffffffffffffffffffffffffffffffffff167fe3b53cd1a44fbf11535e145d80b8ef1ed6d57a73bf5daa7e939b6b01657d6549600254348442604051610f769493929190611e98565b60405180910390a260026000815480929190610f9190612a59565b919050555050565b60006020528160005260406000208181548110610fb557600080fd5b9060005260206000209060040201600091509150508060000154908060010154908060020154908060030154905084565b6060600160008373ffffffffffffffffffffffffffffffffffffffff1673ffffffffffffffffffffffffffffffffffffffff168152602001908152602001600020805480602002602001604051908101604052809291908181526020016000905b828210156111af578382906000526020600020906008020160405180610100016040529081600082015481526020016001820160009054906101000a900473ffffffffffffffffffffffffffffffffffffffff1673ffffffffffffffffffffffffffffffffffffffff1673ffffffffffffffffffffffffffffffffffffffff16815260200160028201548152602001600382015481526020016004820180546110ef906128e4565b80601f016020809104026020016040519081016040528092919081815260200182805461111b906128e4565b80156111685780601f1061113d57610100808354040283529160200191611168565b820191906000526020600020905b81548152906001019060200180831161114b57829003601f168201915b5050505050815260200160058201548152602001600682015481526020016007820160009054906101000a900460ff16151515158152505081526020019060010190611047565b505050509050919050565b600083116111fd576040517f08c379a00000000000000000000000000000000000000000000000000000000081526004016111f490612aed565b60405180910390fd5b60003411611240576040517f08c379a000000000000000000000000000000000000000000000000000000000815260040161123790612b59565b60405180910390fd5b60008111611283576040517f08c379a000000000000000000000000000000000000000000000000000000000815260040161127a90612bc5565b60405180910390fd5b824710156112c6576040517f08c379a00000000000000000000000000000000000000000000000000000000081526004016112bd90612c31565b60405180910390fd5b600160003373ffffffffffffffffffffffffffffffffffffffff1673ffffffffffffffffffffffffffffffffffffffff16815260200190815260200160002060405180610100016040528060035481526020013373ffffffffffffffffffffffffffffffffffffffff1681526020018581526020013481526020018481526020018381526020014281526020016001151581525090806001815401808255809150506001900390600052602060002090600802016000909190919091506000820151816000015560208201518160010160006101000a81548173ffffffffffffffffffffffffffffffffffffffff021916908373ffffffffffffffffffffffffffffffffffffffff160217905550604082015181600201556060820151816003015560808201518160040190816113fd9190612dfd565b5060a0820151816005015560c0820151816006015560e08201518160070160006101000a81548160ff02191690831515021790555050503373ffffffffffffffffffffffffffffffffffffffff167ff2e4c5f3df1fee4db26ec91e9e4ce31a8f3e89c795654d1a4ac7560d3d1c83a6600354853486864260405161148696959493929190612ecf565b60405180910390a260003373ffffffffffffffffffffffffffffffffffffffff16846040516114b49061230b565b60006040518083038185875af1925050503d80600081146114f1576040519150601f19603f3d011682016040523d82523d6000602084013e6114f6565b606091505b505090508061153a576040517f08c379a000000000000000000000000000000000000000000000000000000000815260040161153190612f83565b60405180910390fd5b6003600081548092919061154d90612a59565b919050555050505050565b6000600160003373ffffffffffffffffffffffffffffffffffffffff1673ffffffffffffffffffffffffffffffffffffffff168152602001908152602001600020905060008180549050116115e2576040517f08c379a00000000000000000000000000000000000000000000000000000000081526004016115d990612fef565b60405180910390fd5b6000805b82805490508110156118625782818154811061160557611604612492565b5b906000526020600020906008020160070160009054906101000a900460ff161561185557600083828154811061163e5761163d612492565b5b906000526020600020906008020190508060010160009054906101000a900473ffffffffffffffffffffffffffffffffffffffff1673ffffffffffffffffffffffffffffffffffffffff163373ffffffffffffffffffffffffffffffffffffffff16146116e0576040517f08c379a00000000000000000000000000000000000000000000000000000000081526004016116d79061224e565b60405180910390fd5b8060020154341015611727576040517f08c379a000000000000000000000000000000000000000000000000000000000815260040161171e906122ba565b60405180910390fd5b60008160070160006101000a81548160ff02191690831515021790555060003373ffffffffffffffffffffffffffffffffffffffff16826003015460405161176e9061230b565b60006040518083038185875af1925050503d80600081146117ab576040519150601f19603f3d011682016040523d82523d6000602084013e6117b0565b606091505b50509050806117f4576040517f08c379a00000000000000000000000000000000000000000000000000000000081526004016117eb9061236c565b60405180910390fd5b3373ffffffffffffffffffffffffffffffffffffffff167f82f3cd1e351c1cf149e065782737f7cd0d51ef52fdb03157f0490fc9d069ab47836000015434426040516118429392919061245b565b60405180910390a2600193505050611862565b80806001019150506115e6565b50806118a3576040517f08c379a000000000000000000000000000000000000000000000000000000000815260040161189a9061305b565b60405180910390fd5b5050565b6000819050919050565b6118ba816118a7565b82525050565b60006020820190506118d560008301846118b1565b92915050565b6000604051905090565b600080fd5b600080fd5b600073ffffffffffffffffffffffffffffffffffffffff82169050919050565b600061191a826118ef565b9050919050565b61192a8161190f565b811461193557600080fd5b50565b60008135905061194781611921565b92915050565b600060208284031215611963576119626118e5565b5b600061197184828501611938565b91505092915050565b600081519050919050565b600082825260208201905092915050565b6000819050602082019050919050565b6119af816118a7565b82525050565b6080820160008201516119cb60008501826119a6565b5060208201516119de60208501826119a6565b5060408201516119f160408501826119a6565b506060820151611a0460608501826119a6565b50505050565b6000611a1683836119b5565b60808301905092915050565b6000602082019050919050565b6000611a3a8261197a565b611a448185611985565b9350611a4f83611996565b8060005b83811015611a80578151611a678882611a0a565b9750611a7283611a22565b925050600181019050611a53565b5085935050505092915050565b60006020820190508181036000830152611aa78184611a2f565b905092915050565b611ab8816118a7565b8114611ac357600080fd5b50565b600081359050611ad581611aaf565b92915050565b60008060008060808587031215611af557611af46118e5565b5b6000611b0387828801611ac6565b9450506020611b1487828801611ac6565b9350506040611b2587828801611938565b9250506060611b3687828801611ac6565b91505092959194509250565b60008060408385031215611b5957611b586118e5565b5b6000611b6785828601611ac6565b9250506020611b7885828601611ac6565b9150509250929050565b600080fd5b6000601f19601f8301169050919050565b7f4e487b7100000000000000000000000000000000000000000000000000000000600052604160045260246000fd5b611bd082611b87565b810181811067ffffffffffffffff82111715611bef57611bee611b98565b5b80604052505050565b6000611c026118db565b9050611c0e8282611bc7565b919050565b600060808284031215611c2957611c28611b82565b5b611c336080611bf8565b90506000611c4384828501611ac6565b6000830152506020611c5784828501611ac6565b6020830152506040611c6b84828501611ac6565b6040830152506060611c7f84828501611ac6565b60608301525092915050565b600060808284031215611ca157611ca06118e5565b5b6000611caf84828501611c13565b91505092915050565b60008060408385031215611ccf57611cce6118e5565b5b6000611cdd85828601611938565b9250506020611cee85828601611ac6565b9150509250929050565b611d018161190f565b82525050565b600081519050919050565b600082825260208201905092915050565b60005b83811015611d41578082015181840152602081019050611d26565b60008484015250505050565b6000611d5882611d07565b611d628185611d12565b9350611d72818560208601611d23565b611d7b81611b87565b840191505092915050565b60008115159050919050565b611d9b81611d86565b82525050565b600061010082019050611db7600083018b6118b1565b611dc4602083018a611cf8565b611dd160408301896118b1565b611dde60608301886118b1565b8181036080830152611df08187611d4d565b9050611dff60a08301866118b1565b611e0c60c08301856118b1565b611e1960e0830184611d92565b9998505050505050505050565b6000608082019050611e3b60008301876118b1565b611e486020830186611d92565b611e556040830185611cf8565b611e6260608301846118b1565b95945050505050565b600060208284031215611e8157611e806118e5565b5b6000611e8f84828501611ac6565b91505092915050565b6000608082019050611ead60008301876118b1565b611eba60208301866118b1565b611ec760408301856118b1565b611ed460608301846118b1565b95945050505050565b600081519050919050565b600082825260208201905092915050565b6000819050602082019050919050565b611f128161190f565b82525050565b600082825260208201905092915050565b6000611f3482611d07565b611f3e8185611f18565b9350611f4e818560208601611d23565b611f5781611b87565b840191505092915050565b611f6b81611d86565b82525050565b600061010083016000830151611f8a60008601826119a6565b506020830151611f9d6020860182611f09565b506040830151611fb060408601826119a6565b506060830151611fc360608601826119a6565b5060808301518482036080860152611fdb8282611f29565b91505060a0830151611ff060a08601826119a6565b5060c083015161200360c08601826119a6565b5060e083015161201660e0860182611f62565b508091505092915050565b600061202d8383611f71565b905092915050565b6000602082019050919050565b600061204d82611edd565b6120578185611ee8565b93508360208202850161206985611ef9565b8060005b858110156120a557848403895281516120868582612021565b945061209183612035565b925060208a0199505060018101905061206d565b50829750879550505050505092915050565b600060208201905081810360008301526120d18184612042565b905092915050565b600080fd5b600080fd5b600067ffffffffffffffff8211156120fe576120fd611b98565b5b61210782611b87565b9050602081019050919050565b82818337600083830152505050565b6000612136612131846120e3565b611bf8565b905082815260208101848484011115612152576121516120de565b5b61215d848285612114565b509392505050565b600082601f83011261217a576121796120d9565b5b813561218a848260208601612123565b91505092915050565b6000806000606084860312156121ac576121ab6118e5565b5b60006121ba86828701611ac6565b935050602084013567ffffffffffffffff8111156121db576121da6118ea565b5b6121e786828701612165565b92505060406121f886828701611ac6565b9150509250925092565b7f4e6f742074686520626f72726f77657200000000000000000000000000000000600082015250565b6000612238601083611d12565b915061224382612202565b602082019050919050565b600060208201905081810360008301526122678161222b565b9050919050565b7f496e73756666696369656e742072657061796d656e7420616d6f756e74000000600082015250565b60006122a4601d83611d12565b91506122af8261226e565b602082019050919050565b600060208201905081810360008301526122d381612297565b9050919050565b600081905092915050565b50565b60006122f56000836122da565b9150612300826122e5565b600082019050919050565b6000612316826122e8565b9150819050919050565b7f436f6c6c61746572616c2072657475726e206661696c65640000000000000000600082015250565b6000612356601883611d12565b915061236182612320565b602082019050919050565b6000602082019050818103600083015261238581612349565b9050919050565b7f4e487b7100000000000000000000000000000000000000000000000000000000600052601160045260246000fd5b60006123c6826118a7565b91506123d1836118a7565b92508282039050818111156123e9576123e861238c565b5b92915050565b7f4368616e676520726566756e64206661696c6564000000000000000000000000600082015250565b6000612425601483611d12565b9150612430826123ef565b602082019050919050565b6000602082019050818103600083015261245481612418565b9050919050565b600060608201905061247060008301866118b1565b61247d60208301856118b1565b61248a60408301846118b1565b949350505050565b7f4e487b7100000000000000000000000000000000000000000000000000000000600052603260045260246000fd5b7f4e6f7468696e6720746f20776974686472617700000000000000000000000000600082015250565b60006124f7601383611d12565b9150612502826124c1565b602082019050919050565b60006020820190508181036000830152612526816124ea565b9050919050565b7f496e76616c696420776974686472617720616d6f756e74000000000000000000600082015250565b6000612563601783611d12565b915061256e8261252d565b602082019050919050565b6000602082019050818103600083015261259281612556565b9050919050565b60006125a4826118a7565b91506125af836118a7565b92508282026125bd816118a7565b915082820484148315176125d4576125d361238c565b5b5092915050565b7f4e487b7100000000000000000000000000000000000000000000000000000000600052601260045260246000fd5b6000612615826118a7565b9150612620836118a7565b9250826126305761262f6125db565b5b828204905092915050565b6000612646826118a7565b9150612651836118a7565b92508282019050808211156126695761266861238c565b5b92915050565b7f77697468647261775f616d6f756e740000000000000000000000000000000000600082015250565b60006126a5600f83611d12565b91506126b08261266f565b602082019050919050565b600060408201905081810360008301526126d481612698565b90506126e360208301846118b1565b92915050565b7f70726f72617465645f696e746572657374000000000000000000000000000000600082015250565b600061271f601183611d12565b915061272a826126e9565b602082019050919050565b6000604082019050818103600083015261274e81612712565b905061275d60208301846118b1565b92915050565b7f746f74616c5f7061796f75740000000000000000000000000000000000000000600082015250565b6000612799600c83611d12565b91506127a482612763565b602082019050919050565b600060408201905081810360008301526127c88161278c565b90506127d760208301846118b1565b92915050565b7f5472616e73666572206661696c65640000000000000000000000000000000000600082015250565b6000612813600f83611d12565b915061281e826127dd565b602082019050919050565b6000602082019050818103600083015261284281612806565b9050919050565b7f4465706f736974204944206e6f7420666f756e64000000000000000000000000600082015250565b600061287f601483611d12565b915061288a82612849565b602082019050919050565b600060208201905081810360008301526128ae81612872565b9050919050565b7f4e487b7100000000000000000000000000000000000000000000000000000000600052602260045260246000fd5b600060028204905060018216806128fc57607f821691505b60208210810361290f5761290e6128b5565b5b50919050565b7f6c6f616e206e6f7420666f756e64000000000000000000000000000000000000600082015250565b600061294b600e83611d12565b915061295682612915565b602082019050919050565b6000602082019050818103600083015261297a8161293e565b9050919050565b7f53656e6420736f6d652045544800000000000000000000000000000000000000600082015250565b60006129b7600d83611d12565b91506129c282612981565b602082019050919050565b600060208201905081810360008301526129e6816129aa565b9050919050565b7f496e76616c696420415059000000000000000000000000000000000000000000600082015250565b6000612a23600b83611d12565b9150612a2e826129ed565b602082019050919050565b60006020820190508181036000830152612a5281612a16565b9050919050565b6000612a64826118a7565b91507fffffffffffffffffffffffffffffffffffffffffffffffffffffffffffffffff8203612a9657612a9561238c565b5b600182019050919050565b7f496e76616c6964206c6f616e20616d6f756e7400000000000000000000000000600082015250565b6000612ad7601383611d12565b9150612ae282612aa1565b602082019050919050565b60006020820190508181036000830152612b0681612aca565b9050919050565b7f436f6c6c61746572616c20726571756972656400000000000000000000000000600082015250565b6000612b43601383611d12565b9150612b4e82612b0d565b602082019050919050565b60006020820190508181036000830152612b7281612b36565b9050919050565b7f496e76616c6964206c6f616e206475726174696f6e0000000000000000000000600082015250565b6000612baf601583611d12565b9150612bba82612b79565b602082019050919050565b60006020820190508181036000830152612bde81612ba2565b9050919050565b7f4e6f7420656e6f756768206c697175696469747920746f206c656e6400000000600082015250565b6000612c1b601c83611d12565b9150612c2682612be5565b602082019050919050565b60006020820190508181036000830152612c4a81612c0e565b9050919050565b60008190508160005260206000209050919050565b60006020601f8301049050919050565b600082821b905092915050565b600060088302612cb37fffffffffffffffffffffffffffffffffffffffffffffffffffffffffffffffff82612c76565b612cbd8683612c76565b95508019841693508086168417925050509392505050565b6000819050919050565b6000612cfa612cf5612cf0846118a7565b612cd5565b6118a7565b9050919050565b6000819050919050565b612d1483612cdf565b612d28612d2082612d01565b848454612c83565b825550505050565b600090565b612d3d612d30565b612d48818484612d0b565b505050565b5b81811015612d6c57612d61600082612d35565b600181019050612d4e565b5050565b601f821115612db157612d8281612c51565b612d8b84612c66565b81016020851015612d9a578190505b612dae612da685612c66565b830182612d4d565b50505b505050565b600082821c905092915050565b6000612dd460001984600802612db6565b1980831691505092915050565b6000612ded8383612dc3565b9150826002028217905092915050565b612e0682611d07565b67ffffffffffffffff811115612e1f57612e1e611b98565b5b612e2982546128e4565b612e34828285612d70565b600060209050601f831160018114612e675760008415612e55578287015190505b612e5f8582612de1565b865550612ec7565b601f198416612e7586612c51565b60005b82811015612e9d57848901518255600182019150602085019450602081019050612e78565b86831015612eba5784890151612eb6601f891682612dc3565b8355505b6001600288020188555050505b505050505050565b600060c082019050612ee460008301896118b1565b612ef160208301886118b1565b612efe60408301876118b1565b8181036060830152612f108186611d4d565b9050612f1f60808301856118b1565b612f2c60a08301846118b1565b979650505050505050565b7f4c6f616e207472616e73666572206661696c6564000000000000000000000000600082015250565b6000612f6d601483611d12565b9150612f7882612f37565b602082019050919050565b60006020820190508181036000830152612f9c81612f60565b9050919050565b7f4e6f206c6f616e7320666f756e64000000000000000000000000000000000000600082015250565b6000612fd9600e83611d12565b9150612fe482612fa3565b602082019050919050565b6000602082019050818103600083015261300881612fcc565b9050919050565b7f416374697665206c6f616e206e6f7420666f756e640000000000000000000000600082015250565b6000613045601583611d12565b91506130508261300f565b602082019050919050565b6000602082019050818103600083015261307481613038565b905091905056fea2646970667358221220b8b6cf8a9eef3c76e1c6c8eaac623bb9f50d70555c651dd37ef4060d0eecf29264736f6c634300081c0033",
  "linkReferences": {},
  "deployedLinkReferences": {}
}